{
  "contractName": "AuctionFactory",
  "abi": [
    {
      "anonymous": false,
      "inputs": [
        {
          "indexed": false,
          "internalType": "string",
          "name": "_name",
          "type": "string"
        },
        {
          "indexed": false,
          "internalType": "string",
          "name": "_desc",
          "type": "string"
        },
        {
          "indexed": false,
          "internalType": "address",
          "name": "newAddress",
          "type": "address"
        }
      ],
      "name": "ContractCreated",
      "type": "event"
    },
    {
      "inputs": [
        {
          "internalType": "uint256",
          "name": "",
          "type": "uint256"
        }
      ],
      "name": "auctions",
      "outputs": [
        {
          "internalType": "contract SecretAuction",
          "name": "",
          "type": "address"
        }
      ],
      "stateMutability": "view",
      "type": "function",
      "constant": true
    },
    {
      "inputs": [
        {
          "internalType": "string",
          "name": "_name",
          "type": "string"
        },
        {
          "internalType": "string",
          "name": "_desc",
          "type": "string"
        }
      ],
      "name": "createAuction",
      "outputs": [],
      "stateMutability": "nonpayable",
      "type": "function"
    }
  ],
  "bytecode": "0x608060405234801561001057600080fd5b50612563806100206000396000f3fe60806040523480156200001157600080fd5b50600436106200003a5760003560e01c8063571a26a0146200003f578063b5fa4ea81462000075575b600080fd5b6200005d600480360381019062000057919062000214565b62000095565b6040516200006c9190620002d1565b60405180910390f35b6200009360048036038101906200008d919062000450565b620000d5565b005b60008181548110620000a657600080fd5b906000526020600020016000915054906101000a900473ffffffffffffffffffffffffffffffffffffffff1681565b600033604051620000e690620001b7565b620000f29190620004fa565b604051809103906000f0801580156200010f573d6000803e3d6000fd5b5090506000819080600181540180825580915050600190039060005260206000200160009091909190916101000a81548173ffffffffffffffffffffffffffffffffffffffff021916908373ffffffffffffffffffffffffffffffffffffffff1602179055507fc4e35ee48689d4f7c3d8ea58efd54155f1ea84ffee48edb29b2cdf3c95320ea8838383604051620001aa93929190620005aa565b60405180910390a1505050565b611f3880620005f683390190565b6000604051905090565b600080fd5b600080fd5b6000819050919050565b620001ee81620001d9565b8114620001fa57600080fd5b50565b6000813590506200020e81620001e3565b92915050565b6000602082840312156200022d576200022c620001cf565b5b60006200023d84828501620001fd565b91505092915050565b600073ffffffffffffffffffffffffffffffffffffffff82169050919050565b6000819050919050565b6000620002916200028b620002858462000246565b62000266565b62000246565b9050919050565b6000620002a58262000270565b9050919050565b6000620002b98262000298565b9050919050565b620002cb81620002ac565b82525050565b6000602082019050620002e86000830184620002c0565b92915050565b600080fd5b600080fd5b6000601f19601f8301169050919050565b7f4e487b7100000000000000000000000000000000000000000000000000000000600052604160045260246000fd5b6200034382620002f8565b810181811067ffffffffffffffff8211171562000365576200036462000309565b5b80604052505050565b60006200037a620001c5565b905062000388828262000338565b919050565b600067ffffffffffffffff821115620003ab57620003aa62000309565b5b620003b682620002f8565b9050602081019050919050565b82818337600083830152505050565b6000620003e9620003e3846200038d565b6200036e565b905082815260208101848484011115620004085762000407620002f3565b5b62000415848285620003c3565b509392505050565b600082601f830112620004355762000434620002ee565b5b813562000447848260208601620003d2565b91505092915050565b600080604083850312156200046a5762000469620001cf565b5b600083013567ffffffffffffffff8111156200048b576200048a620001d4565b5b62000499858286016200041d565b925050602083013567ffffffffffffffff811115620004bd57620004bc620001d4565b5b620004cb858286016200041d565b9150509250929050565b6000620004e28262000246565b9050919050565b620004f481620004d5565b82525050565b6000602082019050620005116000830184620004e9565b92915050565b600081519050919050565b600082825260208201905092915050565b60005b838110156200055357808201518184015260208101905062000536565b8381111562000563576000848401525b50505050565b6000620005768262000517565b62000582818562000522565b93506200059481856020860162000533565b6200059f81620002f8565b840191505092915050565b60006060820190508181036000830152620005c6818662000569565b90508181036020830152620005dc818562000569565b9050620005ed6040830184620004e9565b94935050505056fe60806040523480156200001157600080fd5b5060405162001f3838038062001f3883398181016040528101906200003791906200031b565b620000576200004b620000a660201b60201c565b620000ae60201b60201c565b62000068816200017260201b60201c565b7f4bf9ba5ed04206a461bdedc135956fdc187e5c7315de966104810051a8305eb86040516200009790620003d4565b60405180910390a15062000500565b600033905090565b60008060009054906101000a900473ffffffffffffffffffffffffffffffffffffffff169050816000806101000a81548173ffffffffffffffffffffffffffffffffffffffff021916908373ffffffffffffffffffffffffffffffffffffffff1602179055508173ffffffffffffffffffffffffffffffffffffffff168173ffffffffffffffffffffffffffffffffffffffff167f8be0079c531659141344cd1fd0a4f28419497f9722a3daafe3b4186f6b6457e060405160405180910390a35050565b62000182620000a660201b60201c565b73ffffffffffffffffffffffffffffffffffffffff16620001a86200028860201b60201c565b73ffffffffffffffffffffffffffffffffffffffff161462000201576040517f08c379a0000000000000000000000000000000000000000000000000000000008152600401620001f89062000446565b60405180910390fd5b600073ffffffffffffffffffffffffffffffffffffffff168173ffffffffffffffffffffffffffffffffffffffff16141562000274576040517f08c379a00000000000000000000000000000000000000000000000000000000081526004016200026b90620004de565b60405180910390fd5b6200028581620000ae60201b60201c565b50565b60008060009054906101000a900473ffffffffffffffffffffffffffffffffffffffff16905090565b600080fd5b600073ffffffffffffffffffffffffffffffffffffffff82169050919050565b6000620002e382620002b6565b9050919050565b620002f581620002d6565b81146200030157600080fd5b50565b6000815190506200031581620002ea565b92915050565b600060208284031215620003345762000333620002b1565b5b6000620003448482850162000304565b91505092915050565b600082825260208201905092915050565b7f5468652061756374696f6e20686173206265656e206465706c6f79656420746f60008201527f2074686520636861696e00000000000000000000000000000000000000000000602082015250565b6000620003bc602a836200034d565b9150620003c9826200035e565b604082019050919050565b60006020820190508181036000830152620003ef81620003ad565b9050919050565b7f4f776e61626c653a2063616c6c6572206973206e6f7420746865206f776e6572600082015250565b60006200042e6020836200034d565b91506200043b82620003f6565b602082019050919050565b6000602082019050818103600083015262000461816200041f565b9050919050565b7f4f776e61626c653a206e6577206f776e657220697320746865207a65726f206160008201527f6464726573730000000000000000000000000000000000000000000000000000602082015250565b6000620004c66026836200034d565b9150620004d38262000468565b604082019050919050565b60006020820190508181036000830152620004f981620004b7565b9050919050565b611a2880620005106000396000f3fe608060405234801561001057600080fd5b50600436106100f55760003560e01c80638da5cb5b11610097578063ea43b2dd11610066578063ea43b2dd14610228578063f2fde38b14610258578063f4bcebac14610274578063fd8b465f14610290576100f5565b80638da5cb5b146101b25780639b89102a146101d0578063a837cc63146101da578063ceac8b441461020a576100f5565b8063424980da116100d3578063424980da1461013e5780634e3025d21461016e578063715018a61461018c5780637facb8f014610196576100f5565b80630bde8654146100fa57806324891eae14610104578063264976381461010e575b600080fd5b6101026102ae565b005b61010c610402565b005b61012860048036038101906101239190610f51565b610556565b6040516101359190610f97565b60405180910390f35b61015860048036038101906101539190610f51565b61056e565b6040516101659190610fcb565b60405180910390f35b610176610586565b6040516101839190610fcb565b60405180910390f35b61019461058c565b005b6101b060048036038101906101ab9190611012565b610614565b005b6101ba61070a565b6040516101c7919061104e565b60405180910390f35b6101d8610733565b005b6101f460048036038101906101ef9190611095565b610886565b604051610201919061104e565b60405180910390f35b610212610915565b60405161021f9190611139565b60405180910390f35b610242600480360381019061023d9190611095565b610928565b60405161024f919061104e565b60405180910390f35b610272600480360381019061026d9190610f51565b610967565b005b61028e6004803603810190610289919061129a565b610a5f565b005b610298610d5f565b6040516102a59190610fcb565b60405180910390f35b6102b6610d6c565b73ffffffffffffffffffffffffffffffffffffffff166102d461070a565b73ffffffffffffffffffffffffffffffffffffffff161461032a576040517f08c379a000000000000000000000000000000000000000000000000000000000815260040161032190611353565b60405180910390fd5b6001600381111561033e5761033d6110c2565b5b600360009054906101000a900460ff1660038111156103605761035f6110c2565b5b146103a0576040517f08c379a0000000000000000000000000000000000000000000000000000000008152600401610397906113e5565b60405180910390fd5b6002600360006101000a81548160ff021916908360038111156103c6576103c56110c2565b5b02179055507f4bf9ba5ed04206a461bdedc135956fdc187e5c7315de966104810051a8305eb86040516103f890611451565b60405180910390a1565b61040a610d6c565b73ffffffffffffffffffffffffffffffffffffffff1661042861070a565b73ffffffffffffffffffffffffffffffffffffffff161461047e576040517f08c379a000000000000000000000000000000000000000000000000000000000815260040161047590611353565b60405180910390fd5b60006003811115610492576104916110c2565b5b600360009054906101000a900460ff1660038111156104b4576104b36110c2565b5b146104f4576040517f08c379a00000000000000000000000000000000000000000000000000000000081526004016104eb906114e3565b60405180910390fd5b6001600360006101000a81548160ff0219169083600381111561051a576105196110c2565b5b02179055507f4bf9ba5ed04206a461bdedc135956fdc187e5c7315de966104810051a8305eb860405161054c9061154f565b60405180910390a1565b60046020528060005260406000206000915090505481565b60056020528060005260406000206000915090505481565b60025481565b610594610d6c565b73ffffffffffffffffffffffffffffffffffffffff166105b261070a565b73ffffffffffffffffffffffffffffffffffffffff1614610608576040517f08c379a00000000000000000000000000000000000000000000000000000000081526004016105ff90611353565b60405180910390fd5b6106126000610d74565b565b60016003811115610628576106276110c2565b5b600360009054906101000a900460ff16600381111561064a576106496110c2565b5b1461068a576040517f08c379a0000000000000000000000000000000000000000000000000000000008152600401610681906113e5565b60405180910390fd5b80600460003373ffffffffffffffffffffffffffffffffffffffff1673ffffffffffffffffffffffffffffffffffffffff168152602001908152602001600020819055507f4993d1a01dd11fa6de1acf5952a36cf1b3f02f1fa3e764d14aa461230ec02eb033826040516106ff92919061156f565b60405180910390a150565b60008060009054906101000a900473ffffffffffffffffffffffffffffffffffffffff16905090565b61073b610d6c565b73ffffffffffffffffffffffffffffffffffffffff1661075961070a565b73ffffffffffffffffffffffffffffffffffffffff16146107af576040517f08c379a00000000000000000000000000000000000000000000000000000000081526004016107a690611353565b60405180910390fd5b600260038111156107c3576107c26110c2565b5b600360009054906101000a900460ff1660038111156107e5576107e46110c2565b5b14610825576040517f08c379a000000000000000000000000000000000000000000000000000000000815260040161081c9061160a565b60405180910390fd5b60038060006101000a81548160ff0219169083600381111561084a576108496110c2565b5b02179055507f4bf9ba5ed04206a461bdedc135956fdc187e5c7315de966104810051a8305eb860405161087c90611676565b60405180910390a1565b600060018054905082106108cf576040517f08c379a00000000000000000000000000000000000000000000000000000000081526004016108c6906116e2565b60405180910390fd5b600182815481106108e3576108e2611702565b5b9060005260206000200160009054906101000a900473ffffffffffffffffffffffffffffffffffffffff169050919050565b600360009054906101000a900460ff1681565b6001818154811061093857600080fd5b906000526020600020016000915054906101000a900473ffffffffffffffffffffffffffffffffffffffff1681565b61096f610d6c565b73ffffffffffffffffffffffffffffffffffffffff1661098d61070a565b73ffffffffffffffffffffffffffffffffffffffff16146109e3576040517f08c379a00000000000000000000000000000000000000000000000000000000081526004016109da90611353565b60405180910390fd5b600073ffffffffffffffffffffffffffffffffffffffff168173ffffffffffffffffffffffffffffffffffffffff161415610a53576040517f08c379a0000000000000000000000000000000000000000000000000000000008152600401610a4a906117a3565b60405180910390fd5b610a5c81610d74565b50565b60026003811115610a7357610a726110c2565b5b600360009054906101000a900460ff166003811115610a9557610a946110c2565b5b14610ad5576040517f08c379a0000000000000000000000000000000000000000000000000000000008152600401610acc9061160a565b60405180910390fd5b6000600460003373ffffffffffffffffffffffffffffffffffffffff1673ffffffffffffffffffffffffffffffffffffffff16815260200190815260200160002050602060ff1611610b5c576040517f08c379a0000000000000000000000000000000000000000000000000000000008152600401610b5390611835565b60405180910390fd5b60008282604051602001610b719291906118cc565b60405160208183030381529060405280519060200120905080600460003373ffffffffffffffffffffffffffffffffffffffff1673ffffffffffffffffffffffffffffffffffffffff1681526020019081526020016000205414610c0a576040517f08c379a0000000000000000000000000000000000000000000000000000000008152600401610c0190611994565b60405180910390fd5b82600560003373ffffffffffffffffffffffffffffffffffffffff1673ffffffffffffffffffffffffffffffffffffffff168152602001908152602001600020819055507f3be655bab570a53c129bf8413b7575291312bf16ec7061528f57a1ac273b7e73338484604051610c81939291906119b4565b60405180910390a1600254831115610ceb578260028190555060405180602001604052803373ffffffffffffffffffffffffffffffffffffffff1673ffffffffffffffffffffffffffffffffffffffff168152506001906001610ce5929190610e38565b50610d5a565b600254831415610d59576001339080600181540180825580915050600190039060005260206000200160009091909190916101000a81548173ffffffffffffffffffffffffffffffffffffffff021916908373ffffffffffffffffffffffffffffffffffffffff1602179055505b5b505050565b6000600180549050905090565b600033905090565b60008060009054906101000a900473ffffffffffffffffffffffffffffffffffffffff169050816000806101000a81548173ffffffffffffffffffffffffffffffffffffffff021916908373ffffffffffffffffffffffffffffffffffffffff1602179055508173ffffffffffffffffffffffffffffffffffffffff168173ffffffffffffffffffffffffffffffffffffffff167f8be0079c531659141344cd1fd0a4f28419497f9722a3daafe3b4186f6b6457e060405160405180910390a35050565b828054828255906000526020600020908101928215610eb1579160200282015b82811115610eb05782518260006101000a81548173ffffffffffffffffffffffffffffffffffffffff021916908373ffffffffffffffffffffffffffffffffffffffff16021790555091602001919060010190610e58565b5b509050610ebe9190610ec2565b5090565b5b80821115610edb576000816000905550600101610ec3565b5090565b6000604051905090565b600080fd5b600080fd5b600073ffffffffffffffffffffffffffffffffffffffff82169050919050565b6000610f1e82610ef3565b9050919050565b610f2e81610f13565b8114610f3957600080fd5b50565b600081359050610f4b81610f25565b92915050565b600060208284031215610f6757610f66610ee9565b5b6000610f7584828501610f3c565b91505092915050565b6000819050919050565b610f9181610f7e565b82525050565b6000602082019050610fac6000830184610f88565b92915050565b6000819050919050565b610fc581610fb2565b82525050565b6000602082019050610fe06000830184610fbc565b92915050565b610fef81610f7e565b8114610ffa57600080fd5b50565b60008135905061100c81610fe6565b92915050565b60006020828403121561102857611027610ee9565b5b600061103684828501610ffd565b91505092915050565b61104881610f13565b82525050565b6000602082019050611063600083018461103f565b92915050565b61107281610fb2565b811461107d57600080fd5b50565b60008135905061108f81611069565b92915050565b6000602082840312156110ab576110aa610ee9565b5b60006110b984828501611080565b91505092915050565b7f4e487b7100000000000000000000000000000000000000000000000000000000600052602160045260246000fd5b60048110611102576111016110c2565b5b50565b6000819050611113826110f1565b919050565b600061112382611105565b9050919050565b61113381611118565b82525050565b600060208201905061114e600083018461112a565b92915050565b600080fd5b600080fd5b6000601f19601f8301169050919050565b7f4e487b7100000000000000000000000000000000000000000000000000000000600052604160045260246000fd5b6111a78261115e565b810181811067ffffffffffffffff821117156111c6576111c561116f565b5b80604052505050565b60006111d9610edf565b90506111e5828261119e565b919050565b600067ffffffffffffffff8211156112055761120461116f565b5b61120e8261115e565b9050602081019050919050565b82818337600083830152505050565b600061123d611238846111ea565b6111cf565b90508281526020810184848401111561125957611258611159565b5b61126484828561121b565b509392505050565b600082601f83011261128157611280611154565b5b813561129184826020860161122a565b91505092915050565b600080604083850312156112b1576112b0610ee9565b5b60006112bf85828601611080565b925050602083013567ffffffffffffffff8111156112e0576112df610eee565b5b6112ec8582860161126c565b9150509250929050565b600082825260208201905092915050565b7f4f776e61626c653a2063616c6c6572206973206e6f7420746865206f776e6572600082015250565b600061133d6020836112f6565b915061134882611307565b602082019050919050565b6000602082019050818103600083015261136c81611330565b9050919050565b7f5468652061756374696f6e206973206e6f7420696e20636f6d6d69742073746160008201527f6765000000000000000000000000000000000000000000000000000000000000602082015250565b60006113cf6022836112f6565b91506113da82611373565b604082019050919050565b600060208201905081810360008301526113fe816113c2565b9050919050565b7f426964732063616e2062652072657665616c6564206e6f770000000000000000600082015250565b600061143b6018836112f6565b915061144682611405565b602082019050919050565b6000602082019050818103600083015261146a8161142e565b9050919050565b7f5468652061756374696f6e206973206e6f7420696e207374617274207374616760008201527f6500000000000000000000000000000000000000000000000000000000000000602082015250565b60006114cd6021836112f6565b91506114d882611471565b604082019050919050565b600060208201905081810360008301526114fc816114c0565b9050919050565b7f426964732063616e20626520636f6d6d6974746564206e6f7700000000000000600082015250565b60006115396019836112f6565b915061154482611503565b602082019050919050565b600060208201905081810360008301526115688161152c565b9050919050565b6000604082019050611584600083018561103f565b6115916020830184610f88565b9392505050565b7f5468652061756374696f6e206973206e6f7420696e2072657665616c2073746160008201527f6765000000000000000000000000000000000000000000000000000000000000602082015250565b60006115f46022836112f6565b91506115ff82611598565b604082019050919050565b60006020820190508181036000830152611623816115e7565b9050919050565b7f41756374696f6e20436c6f736564000000000000000000000000000000000000600082015250565b6000611660600e836112f6565b915061166b8261162a565b602082019050919050565b6000602082019050818103600083015261168f81611653565b9050919050565b7f417272617920696e646578206f766572666c6f77000000000000000000000000600082015250565b60006116cc6014836112f6565b91506116d782611696565b602082019050919050565b600060208201905081810360008301526116fb816116bf565b9050919050565b7f4e487b7100000000000000000000000000000000000000000000000000000000600052603260045260246000fd5b7f4f776e61626c653a206e6577206f776e657220697320746865207a65726f206160008201527f6464726573730000000000000000000000000000000000000000000000000000602082015250565b600061178d6026836112f6565b915061179882611731565b604082019050919050565b600060208201905081810360008301526117bc81611780565b9050919050565b7f546865207573657220686173206e6f7420636f6d6d697474656420612062696460008201527f2e2052657665616c206e6f7420706f737369626c650000000000000000000000602082015250565b600061181f6035836112f6565b915061182a826117c3565b604082019050919050565b6000602082019050818103600083015261184e81611812565b9050919050565b600081519050919050565b60005b8381101561187e578082015181840152602081019050611863565b8381111561188d576000848401525b50505050565b600061189e82611855565b6118a881856112f6565b93506118b8818560208601611860565b6118c18161115e565b840191505092915050565b60006040820190506118e16000830185610fbc565b81810360208301526118f38184611893565b90509392505050565b7f52657665616c656420626964206973206e6f74207468652073616d652061732060008201527f746865206f6e6520636f6d6d69747465642e2052657665616c206e6f7420416c60208201527f6c6f776564000000000000000000000000000000000000000000000000000000604082015250565b600061197e6045836112f6565b9150611989826118fc565b606082019050919050565b600060208201905081810360008301526119ad81611971565b9050919050565b60006060820190506119c9600083018661103f565b6119d66020830185610fbc565b81810360408301526119e88184611893565b905094935050505056fea2646970667358221220e14a13ff45429366217e481d4f26009ef2e7901dbcd29780f1632af66b14148d64736f6c634300080a0033a2646970667358221220a71445f694524344666888b97b9206979922f09f7cb1440ea9e9c9e4f06f20d864736f6c634300080a0033",
  "immutableReferences": {},
  "source": "// SPDX-License-Identifier: MIT\npragma solidity ^0.8;\n\nimport \"./SecretAuction.sol\";\n\n\n/// @title Factory contract for Secret Auctions\n/// @author Guruprasad Kamath\n/// @dev Allows a user to deploy a new Secret Auction Contract\ncontract AuctionFactory {\n    SecretAuction[] public auctions;\n\n    /// @notice Emitted when a user creates a new Auction\n    /// @param _name Auction Name\n    /// @param _desc Auction Description\n    /// @param newAddress Address of the newly deployed SecretAuction Smart contract\n    event ContractCreated(string _name, string _desc, address newAddress);\n\n\n    /// @dev Creates a new auction\n    /// @param _name Auction name - Useful for identifying the auction at the front end\n    /// @param _desc Auction Description\n    function createAuction(string memory _name, string memory _desc) public {\n        SecretAuction auction = new SecretAuction(msg.sender);\n        auctions.push(auction);\n\n    /// @notice This event can be tracked at the front-end to get a list of deployed auctions\n        emit ContractCreated(_name, _desc, address(auction));\n    }\n}\n",
  "sourcePath": "/Users/guruprasad/Documents/Programming/BlockchainDeveloperBootcamp/blockchain-developer-bootcamp-final-project/contracts/AuctionFactory.sol",
  "compiler": {
    "name": "solc",
    "version": "0.8.10+commit.fc410830.Emscripten.clang"
  },
  "schemaVersion": "3.4.3",
  "updatedAt": "2021-11-25T04:23:57.821Z",
  "networkType": "ethereum",
  "devdoc": {
    "author": "Guruprasad Kamath",
    "details": "Allows a user to deploy a new Secret Auction Contract",
    "events": {
      "ContractCreated(string,string,address)": {
        "params": {
          "_desc": "Auction Description",
          "_name": "Auction Name",
          "newAddress": "Address of the newly deployed SecretAuction Smart contract"
        }
      }
    },
    "kind": "dev",
    "methods": {
      "createAuction(string,string)": {
        "details": "Creates a new auction",
        "params": {
          "_desc": "Auction Description",
          "_name": "Auction name - Useful for identifying the auction at the front end"
        }
      }
    },
    "title": "Factory contract for Secret Auctions",
    "version": 1
  },
  "userdoc": {
    "events": {
      "ContractCreated(string,string,address)": {
        "notice": "Emitted when a user creates a new Auction"
      }
    },
    "kind": "user",
    "methods": {},
    "version": 1
  }
}